:100000000C944B000C946A000C9468000C946800EB
:100010000C9468000C9468000C9468000C946800C0
:100020000C9468000C9468000C9468000C946800B0
:100030000C9468000C9468000C9468000C946800A0
:100040000C9468000C9468000C9468000C94680090
:100050000C9468000C9468000C9468000C94680080
:100060000C9468000C946800084AD73B3BCE016EA4
:1000700084BCBFFDC12F3D6C74319ABD56833DDAFF
:100080003D00C77F11BED9E4BB4C3E916BAAAABE0E
:10009000000000803F0011241FBECFEFD8E0DEBF7C
:1000A000CDBF12E0A0E0B1E0E0E9FAE102C00590C6
:1000B0000D92AA34B107D9F712E0AAE4B2E001C068
:1000C0001D92AD3BB107E1F70E9431010C94460D42
:1000D0000C9400001F920F920FB60F9211248F9371
:1000E00081E080934A028F910F900FBE0F901F9076
:1000F00018951092C50081E08093C400E0ECF0E018
:10010000808182608083E1ECF0E08081886180837F
:10011000E2ECF0E08081866080830895982F8091E2
:10012000C00085FFFCCF9093C6000895FC0107C076
:100130008091C00085FFFCCF9093C60031969081DE
:100140009923B1F708950F931F93DF93CF93CDB702
:10015000DEB72E970FB6F894DEBF0FBECDBF8C0171
:1001600080ED6BE34EE09E012F5F3F4F0E945F03E7
:10017000998180E02A8130E0822B932BF8019183D2
:1001800080839B8180E02C8130E0822B932B9383B2
:1001900082839D8180E02E8130E0822B932B95839A
:1001A00084839F8180E0288530E0822B932B978386
:1001B0008683998580E02A8530E0822B932B918776
:1001C00080879B8580E02C8530E0822B932B938762
:1001D00082879D8580E02E8530E0822B932B95874A
:1001E000848780E090E02E960FB6F894DEBF0FBEB5
:1001F000CDBFCF91DF911F910F91089580ED69E1FF
:100200004FE40E94A30380ED6BE641E00E94A3034C
:1002100080ED6CE640E00E94A30380ED6AE140E0DF
:100220000E94A30380ED6BE148E10E94A30380EDEF
:100230006CE140E00E94A30380ED63E240E00E9495
:10024000A30380ED68E341E00E94A30380ED68E62C
:1002500040E00E94A30380ED6AE640E00E94A30311
:1002600008952F923F924F925F926F927F928F925A
:100270009F92AF92BF92CF92DF92EF92FF920F9335
:100280001F93DF93CF93CDB7DEB767970FB6F89480
:10029000DEBF0FBECDBF8AB18AB9539A8091690083
:1002A000836080936900E89A78940E94B4020E9467
:1002B00079000E94FE0080ED65E7AE014F5F5F4F61
:1002C0000E9439038981883609F45B9A882499242D
:1002D000EE24FF248701AA24BB24650152E0252EC9
:1002E000312C2C0E3D1E40E8442E4EE3542EC1010D
:1002F0000E94A3008A859B85AA2797FDA095BA2F07
:10030000E80EF91E0A1F1B1F8C859D85AA2797FDE5
:10031000A095BA2FA80EB91ECA1EDB1EC2010197F6
:10032000F1F70894811C911C28EE821623E09206B6
:10033000F1F6C801B70128EE33E040E050E00E943A
:10034000CC073F8B2E8BC601B50128EE33E040E091
:1003500050E00E94CC073D8B2C8B188A198A1A8A90
:100360001B8A22243324210180914A028130E1F743
:1003700010924A02CE0102960E94A3006A857B85F4
:100380004E895F89641B750B882777FD8095982FB0
:1003900020E23EE440E050E00E94AD073FE0969549
:1003A0008795779567953A95D1F7882777FD80955A
:1003B000982F288939894A895B89260F371F481F5A
:1003C000591F288B398B4A8B5B8B6C857D854C89BB
:1003D0005D89641B750B882777FD8095982F20E237
:1003E0003EE440E050E00E94AD072FE096958795EF
:1003F000779567952A95D1F7882777FD8095982F6F
:10040000260E371E481E591EAC80BD80CE80DF8070
:10041000662777276A197B09882777FD8095982FAB
:100420000E945F057B018C01B601882777FD8095CE
:10043000982F0E945F059B01AC01C801B7010E9483
:1004400073083B014C01CC9CB001CD9C700DDC9C31
:10045000700D1124AA9C9001AB9C300DBA9C300DFC
:100460001124620F731F882777FD8095982F0E94B3
:100470005F050E940E0A7B018C016A817B818827BF
:1004800077FD8095982F0E945F05A80197010E9433
:1004900073086B017C018DB79EB740970FB6F89437
:1004A0009EBF0FBE8DBF0DB71EB70F5F1F4F2BE452
:1004B00032E0EDB7FEB73283218320E031E0F8016E
:1004C00033832283688979898A899B8928EE33E07E
:1004D00040E050E00E94CC07F80124833583468336
:1004E0005783C401B30120E030E044E353E40E94A9
:1004F000B90328ED3FE049E450E40E94B3040E94B0
:10050000BD05F80171876087C201B10128EE33E0B3
:1005100040E050E00E94CC07F801228733874487EF
:100520005587C701B60120E030E044E353E40E9460
:10053000B90328ED3FE049E450E40E94B3040E946F
:10054000BD05F801778766870E9440082DB73EB742
:10055000205F3F4F0FB6F8943EBF0FBE2DBF8BE418
:1005600092E00E94960000CF88E48093B80084E077
:100570008093BC001092B9000895982F84EA80936C
:10058000BC008091BC0087FFFCCF8091B900887FC0
:10059000883021F0803111F081E008959093BB0004
:1005A00084E88093BC008091BC0087FFFCCF9091D1
:1005B000B900987F983111F480E0089580E090347C
:1005C00009F081E00895982F44EA34E824E9409343
:1005D000BC008091BC0087FFFCCF8091B900887F70
:1005E000883011F0803199F79093BB003093BC00B4
:1005F0008091BC0087FFFCCF8091B900887F80325A
:1006000011F0883539F42093BC008091BC0084FD42
:10061000FCCFDDCF089584E98093BC008091BC00BD
:1006200084FDFCCF08958093BB0084E88093BC00D8
:100630008091BC0087FFFCCF8091B90090E0887F5B
:10064000883209F091E0892F089584EC8093BC00F2
:100650008091BC0087FFFCCF8091BB00089584E8A7
:100660008093BC008091BC0087FFFCCF8091BB00D1
:1006700008950F931F93CF93DF93082F162FEA014E
:100680000E94E302812F0E941303802F8F5F0E943C
:10069000BD0284E88093BC008091BC0087FFFCCF42
:1006A0008091BB00888384E98093BC008091BC006A
:1006B00084FDFCCFDF91CF911F910F910895FF92A0
:1006C0000F931F93CF93DF93182F062FF42EE9017A
:1006D0000E94E302802F0E941303812F8F5F0E94EC
:1006E000BD0240E02F2D30E02150304054EC0DC0D1
:1006F0005093BC008091BC0087FFFCCF8091BB0071
:10070000FE01E40FF11D80834F5F842F90E082177C
:10071000930774F384E88093BC008091BC0087FF4A
:10072000FCCF8091BB00C40FD11D888384E98093E6
:10073000BC008091BC0084FDFCCFDF91CF911F9164
:100740000F91FF9008950F931F93162F042F0E946F
:10075000E302812F0E941303802F0E94130384E978
:100760008093BC008091BC0084FDFCCF1F910F9151
:100770000895A0E2B0E0EFEBF3E00C940908698380
:100780007A838B839C832D833E834F835887CE014E
:100790000196BE01675F7F4F0E943507CE01059627
:1007A000BE016F5E7F4F0E9435079985923088F0B9
:1007B00089898230C8F0943019F4823051F404C031
:1007C000843029F4923081F481E491E0C6C0923003
:1007D00049F420E09A858A89981321E02A87CE017E
:1007E0000996BBC0823049F420E09A858A89981323
:1007F00021E02A8BCE014196B0C02D843E844F84E7
:1008000058886D887E888F88988CEE24FF24870115
:10081000AA24BB24650140E050E060E070E0E0E025
:10082000F0E0C10181709070892BE9F0E60CF71CB3
:10083000081D191D9A01AB012A0D3B1D4C1D5D1DA4
:1008400080E090E0A0E0B0E0E614F70408051905A8
:1008500020F481E090E0A0E0B0E0BA01A901480FE7
:10086000591F6A1F7B1FAA0CBB1CCC1CDD1C97FEEA
:1008700008C081E090E0A0E0B0E0A82AB92ACA2A26
:10088000DB2A3196E032F10549F0660C771C881CB2
:10089000991C5694479437942794C3CFFA85EA89D4
:1008A0002B893C898B859C85280F391F2E5F3F4FF4
:1008B00017C0CA0181709070892B61F01695079559
:1008C000F794E79480E090E0A0E0B0E8E82AF92A05
:1008D0000A2B1B2B76956795579547952F5F3F4FB2
:1008E00077FDE7CF0CC0440F551F661F771F17FD1C
:1008F0004160EE0CFF1C001F111F215030404030A2
:1009000090E0590790E0690790E4790760F32B8F36
:100910003C8FDB01CA018F779070A070B07080347B
:100920009105A105B10561F447FD0AC0E114F10488
:100930000105110529F0405C5F4F6F4F7F4F4078F4
:100940001A8EFE1711F081E08A8F4D8F5E8F6F8FA8
:1009500078A383E0898FCE0149960E946006A09615
:10096000E2E10C942508A8E1B0E0E9EBF4E00C9496
:10097000110869837A838B839C832D833E834F8305
:100980005887B9E0EB2EF12CEC0EFD1ECE0101963E
:10099000B7010E9435078E010F5E1F4FCE010596ED
:1009A000B8010E9435072985223008F47EC03989B4
:1009B000323010F4B8017CC08A859A8989278A87E9
:1009C000243011F0223031F4231709F06EC061E4B5
:1009D00071E06EC0343039F41D861E861F86188A79
:1009E0001C861B8604C0323021F484E08987B7015D
:1009F0005FC02B853C858B899C89281B390B3C87E4
:100A00002B87ED84FE840F851889AD88BE88CF883A
:100A1000D88CEA14FB040C051D0540F4EE0CFF1CF9
:100A2000001F111F215030403C872B8720E030E011
:100A300040E050E080E090E0A0E0B0E460E070E0F2
:100A4000EA14FB040C051D0540F0282B392B4A2B1A
:100A50005B2BEA18FB080C091D09B695A79597951D
:100A60008795EE0CFF1C001F111F6F5F7F4F6F31CA
:100A7000710531F7DA01C9018F779070A070B070FD
:100A800080349105A105B10561F427FD0AC0E11488
:100A9000F1040105110529F0205C3F4F4F4F5F4FD6
:100AA00020782D873E874F87588BBE01675F7F4F29
:100AB000CB010E9460066896EAE00C942D08A8E03D
:100AC000B0E0E5E6F5E00C9412089B01AC0183E090
:100AD0008983DA01C9018827B7FD83959927AA2759
:100AE000BB27B82E211531054105510519F482E0C7
:100AF00089833AC08823A9F0203080E0380780E05D
:100B0000480780E8580729F460E070E080E09FEC37
:100B100030C0EE24FF248701E21AF30A040B150B00
:100B200002C079018A018EE1C82ED12CDC82CB82F1
:100B3000ED82FE820F831887C801B7010E9411065B
:100B400001971816190684F4082E04C0EE0CFF1C39
:100B5000001F111F0A94D2F7ED82FE820F831887BF
:100B6000C81AD90ADC82CB82BA82CE0101960E94D1
:100B700060062896E9E00C942E08ACE0B0E0E3ECC7
:100B8000F5E00C94190869837A838B839C83CE01EA
:100B90000196BE016B5F7F4F0E9435078D818230C9
:100BA00061F1823050F1843021F48E81882351F13B
:100BB0002EC02F81388537FD20C06E812F31310541
:100BC0001CF06623F9F023C08EE190E0821B930BAA
:100BD00029853A854B855C8504C0569547953795A0
:100BE00027958A95D2F76623B1F0509540953095B8
:100BF00021953F4F4F4F5F4F0EC020E030E040E067
:100C000050E009C02FEF3FEF4FEF5FE704C020E057
:100C100030E040E050E8B901CA012C96E2E00C94C3
:100C20003508EF92FF920F931F937B018C0180E0B8
:100C3000E81680E0F80681E0080780E0180788F4ED
:100C40008FEFE816F1040105110531F028F088E076
:100C500090E0A0E0B0E017C080E090E0A0E0B0E05D
:100C600012C080E0E81680E0F80680E0080781E026
:100C7000180728F088E190E0A0E0B0E004C080E12F
:100C800090E0A0E0B0E020E230E040E050E0281B3F
:100C9000390B4A0B5B0B04C016950795F794E79444
:100CA0008A95D2F7F701E75BFE4F8081281B310957
:100CB00041095109C9011F910F91FF90EF900895CB
:100CC000DF92EF92FF920F931F93FC01E480F58077
:100CD00006811781D1808081823048F480E090E0E5
:100CE000A0E1B0E0E82AF92A0A2B1B2BA5C084302A
:100CF00009F49FC0823021F4EE24FF24870105C04F
:100D0000E114F1040105110519F4E0E0F0E096C0EA
:100D1000628173819FEF623879070CF05BC022E833
:100D20003FEF261B370B2A3131052CF020E030E055
:100D300040E050E02AC0B801A701022E04C0769519
:100D40006795579547950A94D2F781E090E0A0E027
:100D5000B0E004C0880F991FAA1FBB1F2A95D2F7C5
:100D60000197A109B1098E219F21A023B1230097EA
:100D7000A105B10521F081E090E0A0E0B0E09A018A
:100D8000AB01282B392B4A2B5B2BDA01C9018F775A
:100D90009070A070B07080349105A105B10539F450
:100DA00027FF09C0205C3F4F4F4F5F4F04C0215CBD
:100DB0003F4F4F4F5F4FE0E0F0E02030A0E03A07B8
:100DC000A0E04A07A0E45A0710F0E1E0F0E0790162
:100DD0008A0127C06038710564F5FB01E158FF4FB7
:100DE000D801C7018F779070A070B07080349105E2
:100DF000A105B10539F4E7FE0DC080E490E0A0E064
:100E0000B0E004C08FE390E0A0E0B0E0E80EF91E8F
:100E10000A1F1B1F17FF05C016950795F794E79447
:100E2000319687E016950795F794E7948A95D1F760
:100E300005C0EE24FF248701EFEFF0E06E2F6795E9
:100E400066276795902F9F77D794DD24D7948E2FB0
:100E50008695492F462B582F5D29B701CA011F914E
:100E60000F91FF90EF90DF900895FC01DB0140812E
:100E700051812281622F6F7770E0221F2227221F6B
:100E80009381892F880F822B282F30E0991F992773
:100E9000991F11969C93119721153105A9F54115BC
:100EA00051056105710511F482E037C082E89FEFBA
:100EB00013969C938E9312979A01AB0167E0220FD1
:100EC000331F441F551F6A95D1F783E08C930DC0E3
:100ED000220F331F441F551F12968D919C9113971B
:100EE000019713969C938E931297203080E03807D9
:100EF00080E0480780E4580758F314962D933D93FB
:100F00004D935C93179708952F3F310579F4411560
:100F100051056105710519F484E08C93089564FF0F
:100F200003C081E08C9312C01C9210C02F57304038
:100F300013963C932E93129783E08C9387E0440F93
:100F4000551F661F771F8A95D1F7706414964D93CD
:100F50005D936D937C9317970895629FD001739F63
:100F6000F001829FE00DF11D649FE00DF11D929F45
:100F7000F00D839FF00D749FF00D659FF00D992784
:100F8000729FB00DE11DF91F639FB00DE11DF91FA8
:100F9000BD01CF011124089597FB092E05260ED01F
:100FA00057FD04D014D00AD0001C38F45095409559
:100FB000309521953F4F4F4F5F4F0895F6F790952D
:100FC0008095709561957F4F8F4F9F4F0895A1E257
:100FD0001A2EAA1BBB1BFD010DC0AA1FBB1FEE1FB3
:100FE000FF1FA217B307E407F50720F0A21BB30BFE
:100FF000E40BF50B661F771F881F991F1A9469F77A
:1010000060957095809590959B01AC01BD01CF01D5
:1010100008952F923F924F925F926F927F928F929C
:101020009F92AF92BF92CF92DF92EF92FF920F9377
:101030001F93CF93DF93CDB7DEB7CA1BDB0B0FB681
:10104000F894DEBF0FBECDBF09942A88398848883E
:101050005F846E847D848C849B84AA84B984C884D4
:10106000DF80EE80FD800C811B81AA81B981CE0FCB
:10107000D11D0FB6F894DEBF0FBECDBFED010895B0
:10108000AEE0B0E0E6E4F8E00C9417080D891E89A4
:1010900086E08C831A8309838FEF9FE79E838D837D
:1010A0009E01275E3F4FCE0101966F89788DA90181
:1010B0000E944F0A2F813885020F131FF8011082FA
:1010C0002E96E4E00C943308F5D058F080E891E0D7
:1010D00009F49EEFF6D028F040E851E059F45EEFB5
:1010E00009C0C0C028C1E92FE07803D168F3092EF8
:1010F000052AC1F3261737074807590738F00E2E7F
:1011000007F8E02569F0E025E0640AC0EF6307F81E
:10111000009407FADB01B9019D01DC01CA01AD01B0
:10112000EF9341D0D5D00AD05F91552331F02BED0C
:101130003FE049E450FD49EC30C40895DF93DD27DA
:10114000B92FBF7740E85FE31616170648075B071D
:1011500010F4D92FF7D09F938F937F936F939CD1E7
:10116000E8E6F0E082D0B4D02F913F914F915F91AB
:10117000FAD0DD2349F09058A2EA2AED3FE049EC8D
:101180005FE3D0785D271AD4DF91A2C09AD040F0F7
:1011900091D030F021F45F3F19F05EC05111CCC006
:1011A00061C0A7D098F39923C9F35523B1F3951BD8
:1011B000550BBB27AA2762177307840738F09F5F78
:1011C0005F4F220F331F441FAA1FA9F333D00E2EE7
:1011D0003AF0E0E830D091505040E695001CCAF754
:1011E00029D0FE2F27D0660F771F881FBB1F261719
:1011F00037074807AB07B0E809F0BB0B802DBF01EC
:10120000FF2793585F4F2AF09E3F510568F024C096
:1012100093C05F3FECF3983EDCF386957795679536
:10122000B795F7959F5FC9F7880F911D969587959C
:1012300097F90895E1E0660F771F881FBB1F6217BB
:1012400073078407BA0720F0621B730B840BBA0B79
:10125000EE1F88F7E095089597F99F6780E870E0A2
:1012600060E008959FEF80EC0895DF93CF931F9384
:101270000F93FF92EF92DF927B018C01689405C07F
:10128000DA2EEF0170D0FE01E894A59125913591F9
:1012900045915591AEF3EF0191D3FE019701A8015D
:1012A000DA9479F7DF90EF90FF900F911F91CF9133
:1012B000DF91089500240A941616170618060906E9
:1012C000089500240A9412161306140605060895BC
:1012D000092E0394000C11F4882352F0BB0F40F444
:1012E000BF2B11F460FF04C06F5F7F4F8F4F9F4F84
:1012F000089557FD9058440F551F59F05F3F71F006
:101300004795880F97FB991F61F09F3F79F087956C
:101310000895121613061406551FF2CF4695F1DFF5
:1013200008C0161617061806991FF1CF8695710585
:10133000610508940895E894BB2766277727CB01B9
:1013400097F908959B01AC0160E070E080E89FE3AD
:101350000ACBB0DF28F0B5DF18F0952309F07CCF79
:1013600081CF1124E9CFC5DFA0F3959FD1F3950F6D
:1013700050E0551F629FF001729FBB27F00DB11D19
:10138000639FAA27F00DB11DAA1F649F6627B00DA9
:10139000A11D661F829F2227B00DA11D621F739F92
:1013A000B00DA11D621F839FA00D611D221F749FA0
:1013B0003327A00D611D231F849F600D211D822FE7
:1013C000762F6A2F11249F5750408AF0E1F088232E
:1013D0004AF0EE0FFF1FBB1F661F771F881F91503B
:1013E0005040A9F79E3F510570F036CFA5CF5F3F23
:1013F000ECF3983EDCF3869577956795B795F7956E
:10140000E7959F5FC1F7FE2B880F911D96958795F5
:1014100097F9089511F40EF425CF23C372DFD0F3AA
:101420009923D9F3CEF39F57550B87FF28D3002478
:10143000A0E640EA900180585695979528F4805C84
:10144000660F771F881F20F026173707480730F4EC
:10145000621B730B840B202931294A2BA695179404
:101460000794202531254A2758F7660F771F881FD4
:1014700020F026173707480730F4620B730B840BF4
:10148000200D311D411DA09581F7B901842F915880
:10149000880F9695879508959B01AC016AC9ABE0CA
:1014A000B0E0E5E5FAE00C9409083C012B015A0193
:1014B000FC0117821682838181FD03C06FEF7FEFED
:1014C000C6C19AE0892E1E010894211C311CF3012B
:1014D0002381F20123FD859123FF81912F01882330
:1014E00009F4B2C1853239F423FD859123FF81913E
:1014F0002F01853229F490E0B3010E94420CE7CF1E
:10150000982FFF24EE249924FFE1FF15D0F09B32A1
:1015100069F09C3228F4903259F0933291F40EC065
:101520009D3249F0903369F441E024C052E0F52A3D
:1015300084E0F82A28C098E0F92A25C0E0E1FE2AD4
:1015400022C0F7FC29C0892F80538A3070F4F6FE40
:1015500005C0989C902C1124980E15C0E89CE02C96
:101560001124E80EF0E2FF2A0EC09E3229F4F6FCA8
:101570006BC140E4F42A07C09C3619F450E8F52A00
:1015800002C0983649F4F20123FD959123FF919111
:101590002F01992309F0B8CF892F8554833018F093
:1015A0008052833038F444E050E0A40EB51E5FE36F
:1015B00059830FC0933631F0933779F0933509F0A2
:1015C00056C020C0F5018081898342E050E0A40E1E
:1015D000B51E610101E010E012C0F501C080D180AC
:1015E000F6FC03C06FEF7FEF02C0692D70E042E0B0
:1015F00050E0A40EB51EC6010E94370C8C015FE7B7
:10160000F52214C0F501C080D180F6FC03C06FEF55
:101610007FEF02C0692D70E042E050E0A40EB51EDD
:10162000C6010E942C0C8C0150E8F52AF3FE07C07D
:101630001AC080E290E0B3010E94420CEA948E2D21
:1016400090E008171907A8F30EC0F601F7FC859182
:10165000F7FE81916F0190E0B3010E94420CE1100E
:10166000EA94015010400115110579F7EAC094364B
:1016700011F0993669F5F7FE08C0F5012081318136
:101680004281538184E090E00AC0F501808191811C
:101690009C01442737FD4095542F82E090E0A80E2E
:1016A000B91E9FE6F92257FF09C050954095309525
:1016B00021953F4F4F4F5F4FE0E8FE2ACA01B90125
:1016C000A1012AE030E00E946E0CD82ED21840C052
:1016D000953729F41F2D1F7E2AE030E01DC01F2DF5
:1016E000197F9F3661F0903720F4983509F0ACC02F
:1016F0000FC0903739F0983709F0A6C004C028E031
:1017000030E00AC0106114FD146020E130E004C034
:1017100014FD166020E132E017FF08C0F50160817A
:1017200071818281938144E050E008C0F50180819D
:101730009181BC0180E090E042E050E0A40EB51E33
:10174000A1010E946E0CD82ED2188FE7F82EF1223C
:10175000F6FE0BC05EEFF522D91438F4F4FE07C094
:10176000F2FC05C08FEEF82202C01D2D01C0192D1C
:10177000F4FE0DC0FE01ED0DF11D8081803319F4E2
:1017800099EEF92208C01F5FF2FE05C003C08F2D3D
:10179000867809F01F5F0F2DF3FC14C0F0FE0FC018
:1017A0001E1510F09D2C0BC09D2C9E0C911A1E2D09
:1017B00006C080E290E0B3010E94420C1F5F1E153C
:1017C000C0F304C01E1510F4E11A01C0EE2404FF9A
:1017D0000FC080E390E0B3010E94420C02FF1DC0E5
:1017E00001FD03C088E790E00EC088E590E00BC0E3
:1017F000802F867891F001FF02C08BE201C080E269
:10180000F7FC8DE290E0B3010E94420C06C080E339
:1018100090E0B3010E94420C9A94D914C0F3DA9478
:10182000F101ED0DF11D808190E0B3010E94420CA9
:10183000DD20A9F706C080E290E0B3010E94420CCF
:10184000EA94EE20C1F743CEF30166817781CB01A4
:101850002B96E2E10C942508FC0105906150704044
:101860000110D8F7809590958E0F9F1F0895FC0169
:101870006150704001900110D8F7809590958E0FBF
:101880009F1F08950F931F93CF93DF938C01EB015C
:101890008B8181FF1BC082FF0DC02E813F818C8117
:1018A0009D812817390764F4E881F9810193F98350
:1018B000E88306C0E885F985802F0995892B31F4E6
:1018C0008E819F8101969F838E8302C00FEF1FEF51
:1018D000C801DF91CF911F910F910895FA01AA27B6
:1018E000283051F1203181F1E8946F936E7F6E5F63
:1018F0007F4F8F4F9F4FAF4FB1E03ED0B4E03CD011
:10190000670F781F891F9A1FA11D680F791F8A1FF3
:10191000911DA11D6A0F711D811D911DA11D20D05A
:1019200009F468943F912AE0269F11243019305D14
:101930003193DEF6CF010895462F4770405D419305
:10194000B3E00FD0C9F7F6CF462F4F70405D4A3352
:1019500018F0495D31FD4052419302D0A9F7EACF1A
:10196000B4E0A6959795879577956795BA95C9F749
:1019700000976105710508959B01AC010A2E06943C
:101980005795479537952795BA95C9F7620F731FF5
:10199000841F951FA01D08955058BB27AA270ED05D
:1019A00097CC88DC30F08DDC20F031F49F3F11F4CF
:1019B0001EF458CC0EF4E095E7FB4ECCE92F99DCF1
:1019C00080F3BA17620773078407950718F071F45C
:1019D0009EF5B1CC0EF4E0950B2EBA2FA02D0B0185
:1019E000B90190010C01CA01A0011124FF27591B64
:1019F00099F0593F50F4503E68F11A16F040A22F6A
:101A0000232F342F4427585FF3CF469537952795DA
:101A1000A795F0405395C9F77EF41F16BA0B620BD9
:101A2000730B840BBAF09150A1F0FF0FBB1F661F20
:101A3000771F881FC2F70EC0BA0F621F731F841F63
:101A400048F4879577956795B795F7959E3F08F089
:101A5000B3CF9395880F08F09927EE0F9795879548
:101A600008959F3F31F0915020F4879577956795C1
:101A7000B795880F911D9695879597F90895915080
:101A80005040660F771F881FD2F70895F894FFCF54
:101A9000415F47783D20256C642020202020726F14
:101AA0006C6C3D2025642020202020415F47793D3B
:101AB00020256C6420202020202070697463683DFC
:101AC0002025640A00D0196A6B6C1A1B1C23383B52
:101AD0006800000000000000000001020203030390
:101AE00003040404040404040405050505050505B0
:101AF000050505050505050505060606060606068F
:101B00000606060606060606060606060606060675
:101B1000060606060606060606070707070707075E
:101B20000707070707070707070707070707070745
:101B30000707070707070707070707070707070735
:101B40000707070707070707070707070707070725
:101B5000070707070707070707080808080808080E
:101B600008080808080808080808080808080808F5
:101B700008080808080808080808080808080808E5
:101B800008080808080808080808080808080808D5
:101B900008080808080808080808080808080808C5
:101BA00008080808080808080808080808080808B5
:101BB00008080808080808080808080808080808A5
:101BC0000808080808080808080808080808080895
:0A1BD00008080808080808080800C3
:00000001FF
