:100000000C9434000C9451000C9451000C94510049
:100010000C9451000C9451000C9451000C9451001C
:100020000C9451000C9451000C9451000C9451000C
:100030000C9451000C9451000C9451000C945100FC
:100040000C9451000C9451000C9451000C945100EC
:100050000C9451000C9451000C9451000C945100DC
:100060000C9451000C94510011241FBECFEFD8E026
:10007000DEBFCDBF11E0A0E0B1E0E2EDF4E002C0F0
:1000800005900D92AC30B107D9F711E0ACE0B1E0CA
:1000900001C01D92AA31B107E1F70E94FD000C9446
:1000A00067020C9400001092C50080E18093C400A8
:1000B000E0ECF0E0808182608083E1ECF0E0808120
:1000C00088618083E2ECF0E080818660808308951F
:1000D000982F8091C00085FFFCCF9093C6000895B3
:1000E000FC0107C08091C00085FFFCCF9093C60043
:1000F000319690819923B1F708950F931F93DF9361
:10010000CF93CDB7DEB72E970FB6F894DEBF0FBEF4
:10011000CDBF8C0180ED6BE34EE09E012F5F3F4F22
:100120000E940D028981F801808311828A81828375
:1001300013828B81848315828C81868317828D81C3
:10014000808711868E81828713868F8184871586AA
:100150008885868717868985808B118A8A85828B18
:10016000138A8B85848B158A8C85868B178A8D855F
:10017000808F118E8E85828F138E80E090E02E9678
:100180000FB6F894DEBF0FBECDBFCF91DF911F91A8
:100190000F91089580ED69E147E00E94510280EDE2
:1001A0006BE641E00E94510280ED6CE640E00E9467
:1001B000510280ED6AE140E00E94510280ED6BE166
:1001C00040E00E94510280ED6CE140E00E9451024B
:1001D00080ED63E240E00E94510280ED68E341E07F
:1001E0000E94510280ED68E640E00E94510280EDDD
:1001F0006AE640E00E9451020895DF92EF92FF927A
:100200000F931F93DF93CF93CDB7DEB76D970FB6E4
:10021000F894DEBF0FBECDBF539A0E9462010E94C8
:1002200053000E94CA0080ED65E7AE014F5F5F4F4B
:100230000E94E7018981883609F45B9A92E0E92EF1
:10024000F12CEC0EFD1E87EFD82E00E41CE9C7014F
:100250000E947D00D0920C018A8180930D018C81D7
:1002600080930E018E8180930F0188858093100109
:100270008A85809311018C85809312018A898093ED
:1002800013018C89809314018E8980931501888DC8
:10029000809316018A8D809317018C8D80931801AD
:1002A000ECE0F1E090818091C00085FFFCCF90935D
:1002B000C600319681E0E931F807A1F7C80101973E
:1002C000F1F7C5CF88E48093B80084E08093BC0048
:1002D0001092B9000895982F84EA8093BC00809111
:1002E000BC0087FFFCCF8091B900887F883021F067
:1002F000803111F081E008959093BB0084E88093F1
:10030000BC008091BC0087FFFCCF9091B900987F22
:10031000983111F480E0089580E0903409F081E094
:100320000895982F44EA34E824E94093BC00809172
:10033000BC0087FFFCCF8091B900887F883011F026
:10034000803199F79093BB003093BC008091BC0042
:1003500087FFFCCF8091B900887F803211F088350B
:1003600039F42093BC008091BC0084FDFCCFDDCF2C
:10037000089584E98093BC008091BC0084FDFCCF8B
:1003800008958093BB0084E88093BC008091BC00FA
:1003900087FFFCCF8091B90090E0887F883209F018
:1003A00091E0892F089584EC8093BC008091BC007B
:1003B00087FFFCCF8091BB00089584E88093BC0048
:1003C0008091BC0087FFFCCF8091BB0008950F9304
:1003D0001F93CF93DF93082F162FEA010E949101FC
:1003E000812F0E94C101802F8F5F0E946B0184E8E2
:1003F0008093BC008091BC0087FFFCCF8091BB0044
:10040000888384E98093BC008091BC0084FDFCCF8C
:10041000DF91CF911F910F910895FF920F931F933A
:10042000CF93DF93182F062FF42EE9010E9491013C
:10043000802F0E94C101812F8F5F0E946B0140E0DD
:100440002F2D30E02150304054EC0DC05093BC00B3
:100450008091BC0087FFFCCF8091BB00FE01E40FC0
:10046000F11D80834F5F842F90E08217930774F310
:1004700084E88093BC008091BC0087FFFCCF809112
:10048000BB00C40FD11D888384E98093BC00809198
:10049000BC0084FDFCCFDF91CF911F910F91FF90A5
:1004A00008950F931F93162F042F0E949101812FFF
:1004B0000E94C101802F0E94C10184E98093BC0089
:1004C0008091BC0084FDFCCF1F910F910895F8949A
:0204D000FFCF5C
:0C04D200D0196A6B6C1A1B1C23383B68A5
:00000001FF
