:100000000C9434000C9451000C9451000C94510049
:100010000C9451000C9451000C9451000C9451001C
:100020000C9451000C9451000C9451000C9451000C
:100030000C9451000C9451000C9451000C945100FC
:100040000C9451000C9451000C9451000C945100EC
:100050000C9451000C9451000C9451000C945100DC
:100060000C9451000C94510011241FBECFEFD8E026
:10007000DEBFCDBF11E0A0E0B1E0ECEBFAE002C0E2
:1000800005900D92A834B107D9F711E0A8E4B1E0CA
:1000900001C01D92A635B107E1F70E940B010C9437
:1000A0005C050C9400001092C50080E18093C400B0
:1000B000E0ECF0E0808182608083E1ECF0E0808120
:1000C00088618083E2ECF0E080818660808308951F
:1000D000982F8091C00085FFFCCF9093C6000895B3
:1000E000FC0107C08091C00085FFFCCF9093C60043
:1000F000319690819923B1F708950F931F93DF9361
:10010000CF93CDB7DEB72E970FB6F894DEBF0FBEF4
:10011000CDBF8C0180ED6BE34EE09E012F5F3F4F22
:100120000E942A02998180E02A8130E0822B932B61
:10013000F801918380839B8180E02C8130E0822BC9
:10014000932B938382839D8180E02E8130E0822BEC
:10015000932B958384839F8180E0288530E0822BD8
:10016000932B97838683998580E02A8530E0822BC4
:10017000932B918780879B8580E02C8530E0822BB4
:10018000932B938782879D8580E02E8530E0822B9C
:10019000932B9587848780E090E02E960FB6F89495
:1001A000DEBF0FBECDBFCF91DF911F910F9108959C
:1001B00080ED69E147E00E946E0280ED6BE641E070
:1001C0000E946E0280ED6CE640E00E946E0280EDBF
:1001D0006AE140E00E946E0280ED6BE140E00E9427
:1001E0006E0280ED6CE140E00E946E0280ED63E201
:1001F00040E00E946E0280ED68E341E00E946E02E2
:1002000080ED68E640E00E946E0280ED6AE640E024
:100210000E946E020895AF92BF92CF92DF92EF924A
:10022000FF920F931F93DF93CF93CDB7DEB7C357E2
:10023000D0400FB6F894DEBF0FBECDBF539A0E94D8
:100240007F010E9453000E94D80080ED65E7AE0157
:100250004F5F5F4F0E9404028981883609F45B9AE0
:1002600022E0A22EB12CAC0EBD1E8E01005F1F4FEE
:1002700090E0C92E91E0D92E80E4E82E8CE9F82E8A
:10028000C5010E947D008DB79EB740970FB6F894C8
:100290009EBF0FBE8DBFEDB7FEB73196ADB7BEB7EF
:1002A00012961C930E931197D382C2828A819B81EE
:1002B000958384838C819D81978386838E819F81A2
:1002C000918780878A859B85938782878C859D858A
:1002D000958784878E859F85978786870E9484026D
:1002E0008DB79EB740960FB6F8949EBF0FBE8DBFD8
:1002F000C8010E947000C7010197F1F7C1CF88E4DF
:100300008093B80084E08093BC001092B9000895F7
:10031000982F84EA8093BC008091BC0087FFFCCFBB
:100320008091B900887F883021F0803111F081E020
:1003300008959093BB0084E88093BC008091BC003A
:1003400087FFFCCF9091B900987F983111F480E03D
:10035000089580E0903409F081E00895982F44EAF0
:1003600034E824E94093BC008091BC0087FFFCCFB7
:100370008091B900887F883011F0803199F790938F
:10038000BB003093BC008091BC0087FFFCCF809104
:10039000B900887F803211F0883539F42093BC0091
:1003A0008091BC0084FDFCCFDDCF089584E980936B
:1003B000BC008091BC0084FDFCCF08958093BB00FD
:1003C00084E88093BC008091BC0087FFFCCF8091C3
:1003D000B90090E0887F883209F091E0892F089574
:1003E00084EC8093BC008091BC0087FFFCCF80919F
:1003F000BB00089584E88093BC008091BC0087FF17
:10040000FCCF8091BB0008950F931F93CF93DF9390
:10041000082F162FEA010E94AE01812F0E94DE01F3
:10042000802F8F5F0E94880184E88093BC008091B8
:10043000BC0087FFFCCF8091BB00888384E9809358
:10044000BC008091BC0084FDFCCFDF91CF911F9157
:100450000F910895FF920F931F93CF93DF93182F5F
:10046000062FF42EE9010E94AE01802F0E94DE01CA
:10047000812F8F5F0E94880140E02F2D30E02150B6
:10048000304054EC0DC05093BC008091BC0087FFFD
:10049000FCCF8091BB00FE01E40FF11D80834F5F14
:1004A000842F90E08217930774F384E88093BC0054
:1004B0008091BC0087FFFCCF8091BB00C40FD11D91
:1004C000888384E98093BC008091BC0084FDFCCFCC
:1004D000DF91CF911F910F91FF9008950F931F937C
:1004E000162F042F0E94AE01812F0E94DE01802F63
:1004F0000E94DE0184E98093BC008091BC0084FDF1
:10050000FCCF1F910F910895AEE0B0E0EAE8F2E071
:100510000C9433050D891E8986E08C831A83098328
:100520008FEF9FE79E838D839E01275E3F4FCE0115
:1005300001966F89788DA9010E94A8022F813885C4
:10054000020F131FF80110822E96E4E00C944F0561
:10055000ABE0B0E0EEEAF2E00C9425053C012B01A3
:100560005A01FC0117821682838181FD03C06FEF5F
:100570007FEFC6C19AE0892E1E010894211C311C10
:10058000F3012381F20123FD859123FF81912F0146
:10059000882309F4B2C1853239F423FD859123FF04
:1005A00081912F01853229F490E0B3010E949B04D0
:1005B000E7CF982FFF24EE249924FFE1FF15D0F018
:1005C0009B3269F09C3228F4903259F0933291F4C6
:1005D0000EC09D3249F0903369F441E024C052E0EE
:1005E000F52A84E0F82A28C098E0F92A25C0E0E13D
:1005F000FE2A22C0F7FC29C0892F80538A3070F46C
:10060000F6FE05C0989C902C1124980E15C0E89C0D
:10061000E02C1124E80EF0E2FF2A0EC09E3229F4ED
:10062000F6FC6BC140E4F42A07C09C3619F450E88C
:10063000F52A02C0983649F4F20123FD959123FF73
:1006400091912F01992309F0B8CF892F85548330D8
:1006500018F08052833038F444E050E0A40EB51E08
:100660005FE359830FC0933631F0933779F09335B8
:1006700009F056C020C0F5018081898342E050E036
:10068000A40EB51E610101E010E012C0F501C080AA
:10069000D180F6FC03C06FEF7FEF02C0692D70E0E0
:1006A00042E050E0A40EB51EC6010E9490048C01E9
:1006B0005FE7F52214C0F501C080D180F6FC03C0CD
:1006C0006FEF7FEF02C0692D70E042E050E0A40EB2
:1006D000B51EC6010E9485048C0150E8F52AF3FE80
:1006E00007C01AC080E290E0B3010E949B04EA9424
:1006F0008E2D90E008171907A8F30EC0F601F7FC3D
:100700008591F7FE81916F0190E0B3010E949B04F7
:10071000E110EA94015010400115110579F7EAC083
:10072000943611F0993669F5F7FE08C0F50120817D
:1007300031814281538184E090E00AC0F5018081DB
:1007400091819C01442737FD4095542F82E090E031
:10075000A80EB91E9FE6F92257FF09C05095409593
:10076000309521953F4F4F4F5F4FE0E8FE2ACA0179
:10077000B901A1012AE030E00E94C704D82ED218A6
:1007800040C0953729F41F2D1F7E2AE030E01DC0A0
:100790001F2D197F9F3661F0903720F4983509F0AE
:1007A000ACC00FC0903739F0983709F0A6C004C02C
:1007B00028E030E00AC0106114FD146020E130E050
:1007C00004C014FD166020E132E017FF08C0F501F7
:1007D000608171818281938144E050E008C0F5011D
:1007E00080819181BC0180E090E042E050E0A40E65
:1007F000B51EA1010E94C704D82ED2188FE7F82E8B
:10080000F122F6FE0BC05EEFF522D91438F4F4FEA7
:1008100007C0F2FC05C08FEEF82202C01D2D01C0FA
:10082000192DF4FE0DC0FE01ED0DF11D8081803308
:1008300019F499EEF92208C01F5FF2FE05C003C04B
:100840008F2D867809F01F5F0F2DF3FC14C0F0FE8A
:100850000FC01E1510F09D2C0BC09D2C9E0C911AE4
:100860001E2D06C080E290E0B3010E949B041F5F32
:100870001E15C0F304C01E1510F4E11A01C0EE24C9
:1008800004FF0FC080E390E0B3010E949B0402FFCD
:100890001DC001FD03C088E790E00EC088E590E030
:1008A0000BC0802F867891F001FF02C08BE201C05F
:1008B00080E2F7FC8DE290E0B3010E949B0406C049
:1008C00080E390E0B3010E949B049A94D914C0F392
:1008D000DA94F101ED0DF11D808190E0B3010E94E9
:1008E0009B04DD20A9F706C080E290E0B3010E94DE
:1008F0009B04EA94EE20C1F743CEF3016681778131
:10090000CB012B96E2E10C944105FC01059061506E
:1009100070400110D8F7809590958E0F9F1F089515
:10092000FC016150704001900110D8F780959095BE
:100930008E0F9F1F08950F931F93CF93DF938C010A
:10094000EB018B8181FF1BC082FF0DC02E813F8197
:100950008C819D812817390764F4E881F98101931E
:10096000F983E88306C0E885F985802F0995892BEE
:1009700031F48E819F8101969F838E8302C00FEF99
:100980001FEFC801DF91CF911F910F910895FA01D8
:10099000AA27283051F1203181F1E8946F936E7FBE
:1009A0006E5F7F4F8F4F9F4FAF4FB1E03ED0B4E0AF
:1009B0003CD0670F781F891F9A1FA11D680F791FF0
:1009C0008A1F911DA11D6A0F711D811D911DA11D01
:1009D00020D009F468943F912AE0269F1124301911
:1009E000305D3193DEF6CF010895462F4770405DAC
:1009F0004193B3E00FD0C9F7F6CF462F4F70405D5B
:100A00004A3318F0495D31FD4052419302D0A9F7B5
:100A1000EACFB4E0A6959795879577956795BA95AF
:100A2000C9F700976105710508959B01AC010A2E75
:100A300006945795479537952795BA95C9F7620F4C
:100A4000731F841F951FA01D08952F923F924F92F0
:100A50005F926F927F928F929F92AF92BF92CF924E
:100A6000DF92EF92FF920F931F93CF93DF93CDB757
:100A7000DEB7CA1BDB0B0FB6F894DEBF0FBECDBFCF
:100A800009942A88398848885F846E847D848C84A0
:100A90009B84AA84B984C884DF80EE80FD800C81A9
:100AA0001B81AA81B981CE0FD11D0FB6F894DEBF8C
:0C0AB0000FBECDBFED010895F894FFCFFC
:100ABC0041783D2025642020202041793D2025646B
:100ACC0020202020417A3D20256409090947783DE2
:100ADC00202564202020202047793D2025642020DB
:100AEC0020202020477A3D2025640A00D0196A6B0B
:080AFC006C1A1B1C23383B6837
:00000001FF
