:100000000C9434000C9451000C9451000C94510049
:100010000C9451000C9451000C9451000C9451001C
:100020000C9451000C9451000C9451000C9451000C
:100030000C9451000C9451000C9451000C945100FC
:100040000C9451000C9451000C9451000C945100EC
:100050000C9451000C9451000C9451000C945100DC
:100060000C9451000C94510011241FBECFEFD8E026
:10007000DEBFCDBF11E0A0E0B1E0E8EFF4E002C0E8
:1000800005900D92AC30B107D9F711E0ACE0B1E0CA
:1000900001C01D92AA31B107E1F70E940F010C9433
:1000A0007A020C9400001092C50080E18093C40095
:1000B000E0ECF0E0808182608083E1ECF0E0808120
:1000C00088618083E2ECF0E080818660808308951F
:1000D000982F8091C00085FFFCCF9093C6000895B3
:1000E000FC0107C08091C00085FFFCCF9093C60043
:1000F000319690819923B1F708950F931F938C0146
:100100008FE3B8010E942D020F5F1F4F80E4B801FA
:100110000E942D021F910F9108950F931F938C0140
:100120008DE3B8010E942D020F5F1F4F8EE3B801CF
:100130000E942D021F910F9108950F931F938C0120
:100140008BE3B8010E942D020F5F1F4F8CE3B801B3
:100150000E942D021F910F9108950F931F938C0100
:1001600087E4B8010E942D020F5F1F4F88E4B80199
:100170000E942D021F910F9108950F931F938C01E0
:1001800085E4B8010E942D020F5F1F4F86E4B8017D
:100190000E942D021F910F9108950F931F938C01C0
:1001A00083E4B8010E942D020F5F1F4F84E4B80161
:1001B0000E942D021F910F9108958CED95E020E98A
:1001C00031E0F9013197F1F70197D9F789E167E05B
:1001D0000E9458028BE661E00E9458028CE660E0C3
:1001E0000E9458028AE160E00E9458028BE160E0C0
:1001F0000E9458028CE160E00E94580283E260E0B5
:100200000E94580288E361E00E94580288E660E09C
:100210000E9458028AE660E00E94580208953F92C8
:100220004F925F926F927F928F929F92AF92BF9206
:10023000CF92DF92EF92FF920F931F93DF93CF93B2
:10024000CDB7DEB72D970FB6F894DEBF0FBECDBF8A
:10025000539A0E94DD000E9400020E94530085E72D
:10026000BE016F5F7F4F0E942D028981883621F485
:100270008BB198E089278BB967EF362E52E0452E77
:10028000512C4C0E5D1E44E0642E712C6C0E7D1EB4
:1002900036E0832E912C8C0E9D1E28E0A22EB12CD0
:1002A000AC0EBD1E9AE0C92ED12CCC0EDD1E8CE00A
:1002B000E82EF12CEC0EFD1E00E41CE930920C013E
:1002C000C2010E94CD008A8180930D018B818093B1
:1002D0000E01C3010E94BD008C8180930F018D81AE
:1002E00080931001C4010E94AD008E8180931101A2
:1002F0008F8180931201C5010E949D0088858093A3
:100300001301898580931401C6010E948D008A859E
:10031000809315018B8580931601C7010E947D0093
:100320008C85809317012D852093180190910C01E5
:100330008091C00085FFFCCF9093C60090910D0185
:100340008091C00085FFFCCF9093C60090910E0174
:100350008091C00085FFFCCF9093C60090910F0163
:100360008091C00085FFFCCF9093C6009091100152
:100370008091C00085FFFCCF9093C6009091110141
:100380008091C00085FFFCCF9093C6009091120130
:100390008091C00085FFFCCF9093C600909113011F
:1003A0008091C00085FFFCCF9093C600909114010E
:1003B0008091C00085FFFCCF9093C60090911501FD
:1003C0008091C00085FFFCCF9093C60090911601EC
:1003D0008091C00085FFFCCF9093C60090911701DB
:1003E0008091C00085FFFCCF9093C6008091C00033
:1003F00085FFFCCF2093C600C8010197F1F75ECFBF
:1004000088E48093B80084E08093BC001092B90027
:10041000089584EA8093BC008091BC0087FFFCCFE4
:10042000089584E98093BC008091BC0084FDFCCFDA
:10043000089584E88093BC008091BC0087FFFCCFC6
:100440008091BB0008958093BB0084E88093BC003A
:100450008091BC0087FFFCCF0895982FFB0184EAB0
:100460008093BC008091BC0087FFFCCF9093BB00C1
:1004700084E88093BC008091BC0087FFFCCF84EAB5
:100480008093BC008091BC0087FFFCCF84E8809300
:10049000BC008091BC0087FFFCCF8091BB008083B3
:1004A00084E98093BC008091BC0084FDFCCF08955A
:1004B000982F84EA8093BC008091BC0087FFFCCF1A
:1004C0009093BB0084E88093BC008091BC0087FFC0
:1004D000FCCF6093BB0084E88093BC008091BC009B
:1004E00087FFFCCF84E98093BC008091BC0084FD31
:0804F000FCCF0895F894FFCF42
:0C04F80068196A6B6C1A1B1C23383B68E7
:00000001FF
