:100000000C9434000C9451000C9451000C94510049
:100010000C9451000C9451000C9451000C9451001C
:100020000C9451000C9451000C9451000C9451000C
:100030000C9451000C9451000C9451000C945100FC
:100040000C9451000C9451000C9451000C945100EC
:100050000C9451000C9451000C9451000C945100DC
:100060000C9451000C94510011241FBECFEFD8E026
:10007000DEBFCDBF11E0A0E0B1E0ECEAF5E002C0E8
:1000800005900D92A031B107D9F711E0A0E1B1E0E0
:1000900001C01D92AE31B107E1F70E9420010C941E
:1000A000D4020C9400001092C50080E18093C4003B
:1000B000E1ECF0E0808188618083E2ECF0E0808117
:1000C000866080830895982F8091C00085FFFCCFC3
:1000D0009093C6000895FC0107C08091C00085FF81
:1000E000FCCF9093C600319690819923B1F7089583
:1000F0000F931F938C0182ED6FE3A8010E94980279
:100100000F5F1F4F82ED60E4A8010E9498021F91CB
:100110000F9108950F931F938C0182ED6DE3A80159
:100120000E9498020F5F1F4F82ED6EE3A8010E94AC
:1001300098021F910F9108950F931F938C0182EDE8
:100140006BE3A8010E9498020F5F1F4F82ED6CE3E2
:10015000A8010E9498021F910F9108950F931F9379
:100160008C0182ED67E4A8010E9498020F5F1F4F87
:1001700082ED68E4A8010E9498021F910F910895F2
:100180000F931F938C0182ED65E4A8010E949802F1
:100190000F5F1F4F82ED66E4A8010E9498021F9135
:1001A0000F9108950F931F938C0182ED63E4A801D2
:1001B0000E9498020F5F1F4F82ED64E4A8010E9425
:1001C00098021F910F9108958CED95E020E931E0A0
:1001D000F9013197F1F70197D9F782ED69E147E02D
:1001E0000E94BE0282ED6BE641E00E94BE0282EDFB
:1001F0006CE640E00E94BE0282ED6AE140E00E94AF
:10020000BE0282ED6BE140E00E94BE0282ED6CE135
:1002100040E00E94BE0282ED63E240E00E94BE0226
:1002200082ED68E341E00E94BE0282ED68E640E0B4
:100230000E94BE0282ED6AE640E00E94BE0208957E
:100240003F924F925F926F927F928F929F92AF9266
:10025000BF92CF92DF92EF92FF920F931F93DF93A3
:10026000CF93CDB7DEB72D970FB6F894DEBF0FBE94
:10027000CDBF539A0E94E4000E9413020E945300D3
:1002800082ED65E7AE014F5F5F4F0E949802898162
:10029000883609F45B9A67EF362E52E0452E512CD2
:1002A0004C0E5D1E44E0642E712C6C0E7D1E36E0FB
:1002B000832E912C8C0E9D1E28E0A22EB12CAC0E0C
:1002C000BD1E9AE0C92ED12CCC0EDD1E8CE0E82E8E
:1002D000F12CEC0EFD1E00E41CE980E091E00E9490
:1002E0006B0030921001C2010E94D2008A8180937B
:1002F00011018B8180931201C3010E94C0008C8187
:10030000809313018D8180931401C4010E94AE007B
:100310008E81809315018F8180931601C5010E9403
:100320009C00888580931701898580931801C601F8
:100330000E948A008A85809319018B8580931A0117
:10034000C7010E9478008C8580931B012D85209326
:100350001C01909110018091C00085FFFCCF90930B
:10036000C600909111018091C00085FFFCCF909351
:10037000C600909112018091C00085FFFCCF909340
:10038000C600909113018091C00085FFFCCF90932F
:10039000C600909114018091C00085FFFCCF90931E
:1003A000C600909115018091C00085FFFCCF90930D
:1003B000C600909116018091C00085FFFCCF9093FC
:1003C000C600909117018091C00085FFFCCF9093EB
:1003D000C600909118018091C00085FFFCCF9093DA
:1003E000C600909119018091C00085FFFCCF9093C9
:1003F000C60090911A018091C00085FFFCCF9093B8
:10040000C60090911B018091C00085FFFCCF9093A6
:10041000C6008091C00085FFFCCF2093C600C801B4
:100420000197F1F75ACF88E48093B80084E0809375
:10043000BC001092B9000895982F84EA8093BC0004
:100440008091BC0087FFFCCF8091B900887F883005
:1004500021F0803111F081E008959093BB0084E891
:100460008093BC008091BC0087FFFCCF9091B900C5
:10047000987F983111F480E0089580E0903409F07D
:1004800081E00895982F44EA34E824E94093BC00C1
:100490008091BC0087FFFCCF8091B900887F8830B5
:1004A00011F0803199F79093BB003093BC0080919C
:1004B000BC0087FFFCCF8091B900887F803211F0AB
:1004C000883539F42093BC008091BC0084FDFCCFBA
:1004D000DDCF089584E98093BC008091BC0084FD49
:1004E000FCCF08958093BB0084E88093BC0080918A
:1004F000BC0087FFFCCF8091B90090E0887F8832F4
:1005000009F091E0892F089584EC8093BC008091DC
:10051000BC0087FFFCCF8091BB00089584E88093E6
:10052000BC008091BC0087FFFCCF8091BB00089588
:100530000F931F93CF93DF93082F162FEA010E948A
:100540004202812F0E947202802F8F5F0E941C0244
:1005500084E88093BC008091BC0087FFFCCF809131
:10056000BB00888384E98093BC008091BC0084FD3B
:10057000FCCFDF91CF911F910F9108950F931F939F
:10058000162F042F0E944202812F0E947202802F98
:100590000E94720284E98093BC008091BC0084FDBB
:0C05A000FCCF1F910F910895F894FFCF3D
:1005AC0048690A00D2196A6B6C1A1B1C23383B6809
:00000001FF
