:100000000C9434000C9453000C9451000C94510047
:100010000C9451000C9451000C9451000C9451001C
:100020000C9451000C9451000C9451000C9451000C
:100030000C9451000C9451000C9451000C945100FC
:100040000C9451000C9451000C9451000C945100EC
:100050000C9451000C9451000C9451000C945100DC
:100060000C9451000C94510011241FBECFEFD8E026
:10007000DEBFCDBF12E0A0E0B1E0EEEDF5E102C0E1
:1000800005900D92AE32B107D9F712E0AEE2B2E0C0
:1000900001C01D92A13AB107E1F70E941A010C9428
:1000A000ED0A0C9400001F920F920FB60F921124CC
:1000B0008F9381E080932E028F910F900FBE0F904F
:1000C0001F9018951092C50080E18093C400E0EC69
:1000D000F0E0808182608083E1ECF0E080818861E3
:1000E0008083E2ECF0E08081866080830895982F21
:1000F0008091C00085FFFCCF9093C6000895FC015D
:1001000007C08091C00085FFFCCF9093C600319658
:1001100090819923B1F708950F931F93DF93CF93A5
:10012000CDB7DEB72E970FB6F894DEBF0FBECDBFAA
:100130008C0180ED6BE34EE09E012F5F3F4F0E94EC
:100140008C02998180E02A8130E0822B932BF80188
:10015000918380839B8180E02C8130E0822B932BE4
:10016000938382839D8180E02E8130E0822B932BCC
:10017000958384839F8180E0288530E0822B932BB8
:1001800097838683998580E02A8530E0822B932BA4
:10019000918780879B8580E02C8530E0822B932B94
:1001A000938782879D8580E02E8530E0822B932B7C
:1001B0009587848780E090E02E960FB6F894DEBF96
:1001C0000FBECDBFCF91DF911F910F91089580EDAC
:1001D00069E14FE40E94D00280ED6BE641E00E94AD
:1001E000D00280ED6CE640E00E94D00280ED6AE132
:1001F00040E00E94D00280ED6BE148E10E94D00215
:1002000080ED6CE140E00E94D00280ED63E240E0CE
:100210000E94D00280ED68E341E00E94D00280EDB0
:1002200068E640E00E94D00280ED6AE640E00E946D
:10023000D00208952F923F924F925F926F927F92D9
:100240008F929F92AF92BF92CF92DF92EF92FF92E6
:100250000F931F93DF93CF93CDB7DEB72F970FB6D2
:10026000F894DEBF0FBECDBF8AB18AB9539A809190
:100270006900816080936900E89A78940E94E101A6
:100280000E9462000E94E70080ED65E7AE014F5FCB
:100290005F4F0E946602CC24DD24EE24FF248701F8
:1002A00032E0A32EB12CAC0EBD1E20E8822E2EE330
:1002B000922EC5010E948C008E859F85AA2797FDEE
:1002C000A095BA2FE80EF91E0A1F1B1FC401019743
:1002D000F1F70894C11CD11C88EEC81683E0D8063B
:1002E00041F7C801B70128EE33E040E050E00E943A
:1002F000D8073901882499240F2EF0E0CF2EF0E0A2
:10030000DF2EF0E0EF2EF0E0FF2EF02D9FE2492EE1
:1003100092E0592E80E0282E81E0382E80912E0226
:100320008130E1F710922E02CE0102960E948C00DD
:100330006E857F8566197709882777FD8095982FC8
:100340000E948A0520E030E04AE75DE30E949004C5
:100350002AE037ED43E25CE30E9490049B01AC018C
:10036000C701B6010E9463046B017C01540108942B
:10037000A11CB11CEDB7FEB738970FB6F894FEBFBD
:100380000FBEEDBF0DB71EB70F5F1F4F52824182E8
:10039000F80133822282958284820E94E805F80166
:1003A000778366830E944C088DB79EB708960FB678
:1003B000F8949EBF0FBE8DBFC2010E947F00450111
:1003C000ADCF88E48093B80084E08093BC001092A5
:1003D000B9000895982F84EA8093BC008091BC00F6
:1003E00087FFFCCF8091B900887F883021F0803171
:1003F00011F081E008959093BB0084E88093BC00E5
:100400008091BC0087FFFCCF9091B900987F983114
:1004100011F480E0089580E0903409F081E00895BF
:10042000982F44EA34E824E94093BC008091BC0052
:1004300087FFFCCF8091B900887F883011F0803130
:1004400099F79093BB003093BC008091BC0087FF6C
:10045000FCCF8091B900887F803211F0883539F463
:100460002093BC008091BC0084FDFCCFDDCF0895BB
:1004700084E98093BC008091BC0084FDFCCF08958A
:100480008093BB0084E88093BC008091BC0087FF10
:10049000FCCF8091B90090E0887F883209F091E02C
:1004A000892F089584EC8093BC008091BC0087FF65
:1004B000FCCF8091BB00089584E88093BC008091BC
:1004C000BC0087FFFCCF8091BB0008950F931F9362
:1004D000CF93DF93082F162FEA010E941002812F7D
:1004E0000E944002802F8F5F0E94EA0184E880937F
:1004F000BC008091BC0087FFFCCF8091BB0088834B
:1005000084E98093BC008091BC0084FDFCCFDF9126
:10051000CF911F910F910895FF920F931F93CF9347
:10052000DF93182F062FF42EE9010E941002802F6E
:100530000E944002812F8F5F0E94EA0140E02F2D30
:1005400030E02150304054EC0DC05093BC008091FD
:10055000BC0087FFFCCF8091BB00FE01E40FF11DC2
:1005600080834F5F842F90E08217930774F384E8B1
:100570008093BC008091BC0087FFFCCF8091BB00C2
:10058000C40FD11D888384E98093BC008091BC0096
:1005900084FDFCCFDF91CF911F910F91FF900895C3
:1005A0000F931F93162F042F0E941002812F0E9479
:1005B0004002802F0E94400284E98093BC00809119
:1005C000BC0084FDFCCF1F910F910895A0E0B0E026
:1005D000ECEEF2E00C941508DC012B01FA019C9181
:1005E000923008F439C1EB018881823008F433C1BC
:1005F000943069F4843009F02FC111969C911197C1
:100600008981981709F428C1A6E2B1E025C1843098
:1006100009F421C18230A9F4923009F01DC19A0178
:10062000AD0188E0EA010990AE01E90109929E015D
:100630008150C1F7E201898111969C9189238183C0
:1006400008C1923009F407C112962D903C9013977F
:10065000EB018A819B811496AD90BD90CD90DC908A
:100660001797EC80FD800E811F819101281B390BAB
:10067000B90137FF04C066277727621B730B60320E
:1006800071050CF061C0121613066CF537014801B4
:10069000062E04C096948794779467940A94D2F7B0
:1006A00021E030E040E050E004C0220F331F441F3F
:1006B000551F6A95D2F721503040404050402E21BE
:1006C0003F2140235123211531054105510521F0DA
:1006D00021E030E040E050E079018A01E628F72887
:1006E000082919293CC0232BD1F1260E371E3501CC
:1006F0004601062E04C096948794779467940A94D2
:10070000D2F721E030E040E050E004C0220F331F78
:10071000441F551F6A95D2F7215030404040504049
:100720002A213B214C215D2121153105410551052F
:1007300021F021E030E040E050E059016A01A628B4
:10074000B728C828D9280BC0821593052CF01C01A6
:10075000AA24BB24650103C0EE24FF24870111965F
:100760009C91D20111968C91981709F445C0992358
:1007700039F0A80197012A193B094C095D0906C007
:10078000A60195012E193F09400B510B57FD08C0DA
:1007900011823382228224833583468357831DC08E
:1007A00081E081833382228288279927DC01821BA2
:1007B000930BA40BB50B84839583A683B7830DC0DD
:1007C000220F331F441F551F2483358346835783CD
:1007D000828193810197938382832481358146812D
:1007E0005781DA01C9010197A109B1098F5F9F4FB4
:1007F000AF4FBF4328F30BC0918333822282EA0CB0
:10080000FB1C0C1D1D1DE482F5820683178383E00B
:100810008083248135814681578157FF1AC0C901E1
:10082000AA2797FDA095BA2F81709070A070B07024
:100830005695479537952795822B932BA42BB52B4F
:1008400084839583A683B783828193810196938362
:100850008283DF0101C0D201CD01CDB7DEB7E2E175
:100860000C943108A0E2B0E0E8E3F4E00C94210835
:1008700069837A838B839C832D833E834F83588740
:10088000E9E0EE2EF12CEC0EFD1ECE010196B70133
:100890000E9460078E010F5E1F4FCE010596B801C2
:1008A0000E9460078A8991E089278A8BC701B80175
:1008B000AE01475E5F4F0E94E6020E948B06A09643
:1008C000E6E00C943D08A0E2B0E0E9E6F4E00C9428
:1008D000210869837A838B839C832D833E834F8396
:1008E0005887F9E0EF2EF12CEC0EFD1ECE0101969B
:1008F000B7010E9460078E010F5E1F4FCE01059663
:10090000B8010E946007C701B801AE01475E5F4FA2
:100910000E94E6020E948B06A096E6E00C943D0839
:10092000A0E2B0E0E6E9F4E00C94150869837A836C
:100930008B839C832D833E834F835887CE01019602
:10094000BE01675F7F4F0E946007CE010596BE0122
:100950006F5E7F4F0E9460079985923088F0898989
:100960008230C8F0943019F4823051F404C08430DD
:1009700029F4923081F486E291E0C6C0923049F4C5
:1009800020E09A858A89981321E02A87CE0109966A
:10099000BBC0823049F420E09A858A89981321E00F
:1009A0002A8BCE014196B0C02D843E844F84588856
:1009B0006D887E888F88988CEE24FF248701AA2476
:1009C000BB24650140E050E060E070E0E0E0F0E072
:1009D000C10181709070892BE9F0E60CF71C081DAD
:1009E000191D9A01AB012A0D3B1D4C1D5D1D80E0B8
:1009F00090E0A0E0B0E0E614F7040805190520F443
:100A000081E090E0A0E0B0E0BA01A901480F591FD1
:100A10006A1F7B1FAA0CBB1CCC1CDD1C97FE08C0E8
:100A200081E090E0A0E0B0E0A82AB92ACA2ADB2A37
:100A30003196E032F10549F0660C771C881C991C50
:100A40005694479437942794C3CFFA85EA892B8923
:100A50003C898B859C85280F391F2E5F3F4F17C01F
:100A6000CA0181709070892B61F016950795F794F3
:100A7000E79480E090E0A0E0B0E8E82AF92A0A2BA9
:100A80001B2B76956795579547952F5F3F4F77FDC1
:100A9000E7CF0CC0440F551F661F771F17FD41603D
:100AA000EE0CFF1C001F111F21503040403090E021
:100AB000590790E0690790E4790760F32B8F3C8F2A
:100AC000DB01CA018F779070A070B07080349105FF
:100AD000A105B10561F447FD0AC0E114F104010567
:100AE000110529F0405C5F4F6F4F7F4F40781A8EA1
:100AF000FE1711F081E08A8F4D8F5E8F6F8F78A384
:100B000083E0898FCE0149960E948B06A096E2E190
:100B10000C943108A8E0B0E0E0E9F5E00C941E0880
:100B20009B01AC0183E08983DA01C9018827B7FD05
:100B300083959927AA27BB27B82E21153105410592
:100B4000510519F482E089833AC08823A9F0203046
:100B500080E0380780E0480780E8580729F460E023
:100B600070E080E09FEC30C0EE24FF248701E21AA1
:100B7000F30A040B150B02C079018A018EE1C82E1D
:100B8000D12CDC82CB82ED82FE820F831887C801D4
:100B9000B7010E943C0601971816190684F4082E26
:100BA00004C0EE0CFF1C001F111F0A94D2F7ED8247
:100BB000FE820F831887C81AD90ADC82CB82BA82D8
:100BC000CE0101960E948B062896E9E00C943A0823
:100BD000ACE0B0E0EEEEF5E00C94250869837A8392
:100BE0008B839C83CE010196BE016B5F7F4F0E9479
:100BF00060078D81823061F1823050F1843021F4C0
:100C00008E81882351F12EC02F81388537FD20C079
:100C10006E812F3131051CF06623F9F023C08EE17F
:100C200090E0821B930B29853A854B855C8504C037
:100C300056954795379527958A95D2F76623B1F053
:100C400050954095309521953F4F4F4F5F4F0EC0C7
:100C500020E030E040E050E009C02FEF3FEF4FEFE1
:100C60005FE704C020E030E040E050E8B901CA018D
:100C70002C96E2E00C944108EF92FF920F931F93A1
:100C80007B018C0180E0E81680E0F80681E008072F
:100C900080E0180788F48FEFE816F10401051105CC
:100CA00031F028F088E090E0A0E0B0E017C080E0EC
:100CB00090E0A0E0B0E012C080E0E81680E0F80626
:100CC00080E0080781E0180728F088E190E0A0E0C4
:100CD000B0E004C080E190E0A0E0B0E020E230E0CD
:100CE00040E050E0281B390B4A0B5B0B04C0169503
:100CF0000795F794E7948A95D2F7F701E25DFE4FE6
:100D00008081281B310941095109C9011F910F91A7
:100D1000FF90EF900895DF92EF92FF920F931F9351
:100D2000FC01E480F58006811781D18080818230CA
:100D300048F480E090E0A0E1B0E0E82AF92A0A2B2C
:100D40001B2BA5C0843009F49FC0823021F4EE240F
:100D5000FF24870105C0E114F1040105110519F410
:100D6000E0E0F0E096C0628173819FEF623879071E
:100D70000CF05BC022E83FEF261B370B2A31310510
:100D80002CF020E030E040E050E02AC0B801A7019C
:100D9000022E04C076956795579547950A94D2F729
:100DA00081E090E0A0E0B0E004C0880F991FAA1F86
:100DB000BB1F2A95D2F70197A109B1098E219F2166
:100DC000A023B1230097A105B10521F081E090E0B7
:100DD000A0E0B0E09A01AB01282B392B4A2B5B2B0A
:100DE000DA01C9018F779070A070B07080349105DE
:100DF000A105B10539F427FF09C0205C3F4F4F4FD3
:100E00005F4F04C0215C3F4F4F4F5F4FE0E0F0E089
:100E10002030A0E03A07A0E04A07A0E45A0710F00B
:100E2000E1E0F0E079018A0127C06038710564F5DE
:100E3000FB01E158FF4FD801C7018F779070A07078
:100E4000B07080349105A105B10539F4E7FE0DC0FD
:100E500080E490E0A0E0B0E004C08FE390E0A0E088
:100E6000B0E0E80EF91E0A1F1B1F17FF05C01695FC
:100E70000795F794E794319687E016950795F794D0
:100E8000E7948A95D1F705C0EE24FF248701EFEFA0
:100E9000F0E06E2F679566276795902F9F77D79420
:100EA000DD24D7948E2F8695492F462B582F5D2908
:100EB000B701CA011F910F91FF90EF90DF90089545
:100EC000FC01DB01408151812281622F6F7770E04C
:100ED000221F2227221F9381892F880F822B282FE0
:100EE00030E0991F9927991F11969C93119721150E
:100EF0003105A9F5411551056105710511F482E02F
:100F000037C082E89FEF13969C938E9312979A01B5
:100F1000AB0167E0220F331F441F551F6A95D1F7BD
:100F200083E08C930DC0220F331F441F551F129670
:100F30008D919C911397019713969C938E93129782
:100F4000203080E0380780E0480780E4580758F3F5
:100F500014962D933D934D935C93179708952F3FCF
:100F6000310579F4411551056105710519F484E0E5
:100F70008C93089564FF03C081E08C9312C01C928F
:100F800010C02F57304013963C932E93129783E056
:100F90008C9387E0440F551F661F771F8A95D1F702
:100FA000706414964D935D936D937C931797089599
:100FB00097FB092E05260ED057FD04D014D00AD079
:100FC000001C38F450954095309521953F4F4F4F78
:100FD0005F4F0895F6F790958095709561957F4FD6
:100FE0008F4F9F4F0895A1E21A2EAA1BBB1BFD0134
:100FF0000DC0AA1FBB1FEE1FFF1FA217B307E407F8
:10100000F50720F0A21BB30BE40BF50B661F771F4F
:10101000881F991F1A9469F760957095809590952F
:101020009B01AC01BD01CF0108952F923F924F92D9
:101030005F926F927F928F929F92AF92BF92CF9268
:10104000DF92EF92FF920F931F93CF93DF93CDB771
:10105000DEB7CA1BDB0B0FB6F894DEBF0FBECDBFE9
:1010600009942A88398848885F846E847D848C84BA
:101070009B84AA84B984C884DF80EE80FD800C81C3
:101080001B81AA81B981CE0FD11D0FB6F894DEBFA6
:101090000FBECDBFED010895AEE0B0E0E2E5F8E0AF
:1010A0000C9423080D891E8986E08C831A8309839A
:1010B0008FEF9FE79E838D839E01275E3F4FCE017A
:1010C00001966F89788DA9010E9470082F8138855B
:1010D000020F131FF80110822E96E4E00C943F08D3
:1010E000ABE0B0E0E6E7F8E00C9415083C012B011A
:1010F0005A01FC0117821682838181FD03C06FEFC4
:101100007FEFC6C19AE0892E1E010894211C311C74
:10111000F3012381F20123FD859123FF81912F01AA
:10112000882309F4B2C1853239F423FD859123FF68
:1011300081912F01853229F490E0B3010E94630A66
:10114000E7CF982FFF24EE249924FFE1FF15D0F07C
:101150009B3269F09C3228F4903259F0933291F42A
:101160000EC09D3249F0903369F441E024C052E052
:10117000F52A84E0F82A28C098E0F92A25C0E0E1A1
:10118000FE2A22C0F7FC29C0892F80538A3070F4D0
:10119000F6FE05C0989C902C1124980E15C0E89C72
:1011A000E02C1124E80EF0E2FF2A0EC09E3229F452
:1011B000F6FC6BC140E4F42A07C09C3619F450E8F1
:1011C000F52A02C0983649F4F20123FD959123FFD8
:1011D00091912F01992309F0B8CF892F855483303D
:1011E00018F08052833038F444E050E0A40EB51E6D
:1011F0005FE359830FC0933631F0933779F093351D
:1012000009F056C020C0F5018081898342E050E09A
:10121000A40EB51E610101E010E012C0F501C0800E
:10122000D180F6FC03C06FEF7FEF02C0692D70E044
:1012300042E050E0A40EB51EC6010E94580A8C017F
:101240005FE7F52214C0F501C080D180F6FC03C031
:101250006FEF7FEF02C0692D70E042E050E0A40E16
:10126000B51EC6010E944D0A8C0150E8F52AF3FE16
:1012700007C01AC080E290E0B3010E94630AEA94BA
:101280008E2D90E008171907A8F30EC0F601F7FCA1
:101290008591F7FE81916F0190E0B3010E94630A8E
:1012A000E110EA94015010400115110579F7EAC0E8
:1012B000943611F0993669F5F7FE08C0F5012081E2
:1012C00031814281538184E090E00AC0F501808140
:1012D00091819C01442737FD4095542F82E090E096
:1012E000A80EB91E9FE6F92257FF09C050954095F8
:1012F000309521953F4F4F4F5F4FE0E8FE2ACA01DE
:10130000B901A1012AE030E00E948F0AD82ED2183C
:1013100040C0953729F41F2D1F7E2AE030E01DC004
:101320001F2D197F9F3661F0903720F4983509F012
:10133000ACC00FC0903739F0983709F0A6C004C090
:1013400028E030E00AC0106114FD146020E130E0B4
:1013500004C014FD166020E132E017FF08C0F5015B
:10136000608171818281938144E050E008C0F50181
:1013700080819181BC0180E090E042E050E0A40EC9
:10138000B51EA1010E948F0AD82ED2188FE7F82E21
:10139000F122F6FE0BC05EEFF522D91438F4F4FE0C
:1013A00007C0F2FC05C08FEEF82202C01D2D01C05F
:1013B000192DF4FE0DC0FE01ED0DF11D808180336D
:1013C00019F499EEF92208C01F5FF2FE05C003C0B0
:1013D0008F2D867809F01F5F0F2DF3FC14C0F0FEEF
:1013E0000FC01E1510F09D2C0BC09D2C9E0C911A49
:1013F0001E2D06C080E290E0B3010E94630A1F5FC9
:101400001E15C0F304C01E1510F4E11A01C0EE242D
:1014100004FF0FC080E390E0B3010E94630A02FF63
:101420001DC001FD03C088E790E00EC088E590E094
:101430000BC0802F867891F001FF02C08BE201C0C3
:1014400080E2F7FC8DE290E0B3010E94630A06C0DF
:1014500080E390E0B3010E94630A9A94D914C0F328
:10146000DA94F101ED0DF11D808190E0B3010E944D
:10147000630ADD20A9F706C080E290E0B3010E9474
:10148000630AEA94EE20C1F743CEF30166817781C7
:10149000CB012B96E2E10C943108FC0105906150E0
:1014A00070400110D8F7809590958E0F9F1F08957A
:1014B000FC016150704001900110D8F78095909523
:1014C0008E0F9F1F08950F931F93CF93DF938C016F
:1014D000EB018B8181FF1BC082FF0DC02E813F81FC
:1014E0008C819D812817390764F4E881F981019383
:1014F000F983E88306C0E885F985802F0995892B53
:1015000031F48E819F8101969F838E8302C00FEFFD
:101510001FEFC801DF91CF911F910F910895FA013C
:10152000AA27283051F1203181F1E8946F936E7F22
:101530006E5F7F4F8F4F9F4FAF4FB1E03ED0B4E013
:101540003CD0670F781F891F9A1FA11D680F791F54
:101550008A1F911DA11D6A0F711D811D911DA11D65
:1015600020D009F468943F912AE0269F1124301975
:10157000305D3193DEF6CF010895462F4770405D10
:101580004193B3E00FD0C9F7F6CF462F4F70405DBF
:101590004A3318F0495D31FD4052419302D0A9F71A
:1015A000EACFB4E0A6959795879577956795BA9514
:1015B000C9F700976105710508959B01AC010A2EDA
:1015C00006945795479537952795BA95C9F7620FB1
:0E15D000731F841F951FA01D0895F894FFCF70
:1015DE00636F756E74203D2025640920416E676C23
:1015EE00655F477A3D2025640A00D0196A6B6C1A34
:1015FE001B1C23383B6800000000000000000001A7
:10160E000202030303030404040404040404050592
:10161E00050505050505050505050505050506066A
:10162E00060606060606060606060606060606064C
:10163E00060606060606060606060606060607073A
:10164E00070707070707070707070707070707071C
:10165E00070707070707070707070707070707070C
:10166E0007070707070707070707070707070707FC
:10167E0007070707070707070707070707070808EA
:10168E0008080808080808080808080808080808CC
:10169E0008080808080808080808080808080808BC
:1016AE0008080808080808080808080808080808AC
:1016BE00080808080808080808080808080808089C
:1016CE00080808080808080808080808080808088C
:1016DE00080808080808080808080808080808087C
:1016EE00080808080808080808080808080808086C
:0E16FE0008080808080808080808080808086E
:00000001FF
